:100000000C9463000C9480000C9480000C94AF035B
:100010000C9480000C9480000C9480000C94BD0320
:100020000C9480000C9480000C9480000C94800050
:100030000C9480000C9480000C9480000C94800040
:100040000C9480000C9480000C94E1020C948000CD
:100050000C9480000C9480000C9480000C94800020
:100060000C9480000C94800005031C0331034603AC
:100070005603690385039003526164696700003881
:1000800043482044494D4D4552000044494D4D459B
:1000900052000000800081008200F0010001000594
:1000A0000901000000000801010001000000FEFE3F
:1000B000FEFEFEFEFEAAAB55BB55AA57AF55AA558C
:1000C000EE57AE57FB5D11241FBECFEFD8E0DEBF69
:1000D000CDBF11E0A0E0B1E0ECE4FAE002C0059091
:1000E0000D92AE30B107D9F721E0AEE0B1E001C02A
:1000F0001D92A63AB207E1F70E9425040C9424054C
:100100000C94000046E250E060E070E080E191E095
:100110000E940C05089546E250E060E070E080E146
:1001200091E00E94FC04809112018132D1F081E2C1
:100130008093120181E090E0909314018093130169
:1001400086E0809315016BE870E086E191E00E9403
:10015000DF0446E250E060E070E080E191E00E9460
:100160000C05529A519A599A5A981092C50082E0F9
:100170008093C40080E98093C100E2ECF0E08081CC
:10018000886080831092390180E090E0FC01E65C99
:10019000FE4F1082019688309105C1F710920F0131
:1001A0000895CF93DF931092C5008EE08093C40032
:1001B00088E08093C1005A9AC5E4D1E0A8E0B1E09C
:1001C000EBE4F1E08EE091E0208129932D912193E1
:1001D000A817B907C9F78CEC8093420181E080939E
:1001E00043014091590178E1740F709344011092DA
:1001F0005301E6E5F1E080818F5F808380E090E04D
:100200007723A1F0495E50E04F5F5F4F80E090E0C0
:1002100020E030E0FC01EE5BFE4F6081260F311DD7
:10022000019684179507B1F7822F932FE72FF0E0FF
:10023000EE5BFE4F9083E0914401F0E0ED5BFE4FFA
:1002400080831092C60080E48093C000E0ECF0E070
:10025000808186FFFDCF83EA91E00197F1F700C02E
:1002600000001092C50082E08093C4008091440198
:1002700080E090E040E0C6ECD0E0E0ECF0E050E45C
:1002800064E471E0A8E3AA95F1F78E5B9E4FDC0170
:100290008C9188835083808186FFFDCF4F5F842FB0
:1002A00090E0DB012C9130E02E5F3F4F82179307E7
:1002B0004CF380E98093C1005A98DF91CF91089563
:1002C000CF93DF9380910F0183FD25C0F89488E0E0
:1002D0008093C1005A9A88E28A95F1F7EEEAF0E03D
:1002E00086EC90E0C6ECD0E0A0ECB0E030E42491E5
:1002F00028833C932C9126FFFDCF3196E817F90710
:10030000B1F780E98093C1005A98E0E7F0E080817E
:10031000826080837894DF91CF910895CF93DF93AB
:1003200080910F0182FF4AC180910F018B7F8093E2
:100330000F01E5E4F1E0A8E0B1E08BE491E060E0DA
:1003400050E041E021913D912313642F2F3F09F0AC
:10035000542FE817F907B1F7552311F061112EC199
:100360001092520180915701909158019827892746
:1003700098278036910509F4AEC080F4823091054B
:10038000F1F118F4019701F10EC18330910509F4E0
:1003900045C08035910509F4F8C005C18238910542
:1003A00009F4C7C048F48038910509F4AAC081381F
:1003B000910509F4B2C0F7C0803F910509F465C00A
:1003C00081159041D1F1EFC046E050E068E071E066
:1003D0008AE591E00E94E604181619060CF4EEC0B6
:1003E00046E050E060E671E088E091E00E94E604BB
:1003F000181619060CF4E2C00E946001DFC080915B
:100400000F01886080930F0110925A0110925B01D6
:1004100082E0809359010E94D100D0C080910F01E9
:10042000877F80930F0110925A0110925B0182E046
:10043000809359010E94D100C1C080915601803340
:10044000A1F480915A01813031F480910F018260D2
:1004500080930F0105C080910F018D7F80930F0164
:10046000109259010E94D100A9C080910F0181FF13
:1004700004C081E080935A0102C010925A0181E0C9
:10048000809359010E94D10099C080915601803318
:10049000A1F480915A0190E0982F882720915B0168
:1004A000822B909314018093130180910F0180613E
:1004B00080930F01109259010BC0E3E1F1E08081BC
:1004C000918190935A0180935B0182E0809359015E
:1004D0000E94D10073C043E150E06BE970E08AE50F
:1004E00091E00E94D604E3E1F1E080819181909354
:1004F00068018093690183E1809359010E94D100D2
:100500005DC06FE770E08AE591E00E94DF0480E162
:10051000809359010E94D10051C068E770E08AE5DC
:1005200091E00E94DF0486E0809359010E94D1008F
:1005300045C0809156018033D1F4809159018132B8
:1005400018F080E280935901C9E5D1E048814093D9
:10055000150150E06AE571E086E191E00E94F30444
:1005600080910F01806180930F0118820BC0409130
:1005700015014093590150E066E171E08AE591E090
:100580000E94F3040E94D10019C048E050E063E9E2
:1005900070E08AE591E00E94D60488E080935901DA
:1005A0000E94D1000BC010925A0110925B0182E0B0
:1005B00080935901809352010E94D100DF91CF9125
:1005C00008951F920F920FB60F9211242F933F930D
:1005D0008F939F93AF93BF93EF93FF939091C0003E
:1005E0002091C60094FF04C081E080933901A3C02C
:1005F0008091390190E0FC013197E830F10508F075
:100600009AC0EC5CFF4F0C94D00421110CC082E026
:1006100080933901809113019091140190933701D7
:100620008093360188C02C3C21F484E0809339010A
:1006300082C0109239017FC08091360190913701BC
:1006400001979093370180933601892B09F073C08D
:1006500083E08093390120933A0181E0809338014F
:100660006AC0E091380181E08E0F80933801F0E09C
:10067000E65CFE4F2083883008F45DC080910F0156
:10068000816080930F011092390155C0213059F4D7
:1006900080910F0182FD07C085E08093390183E0DE
:1006A0008093380148C01092390145C0209344011D
:1006B000243660F4822F90E083539F4F909337014C
:1006C0008093360186E08093390135C0109239015C
:1006D00032C0E091380131E03E0F30933801F0E054
:1006E000EE5BFE4F20838091360190913701820F9F
:1006F000911D909337018093360180914401381306
:100700001AC087E08093390116C0809137018213A7
:1007100004C088E0809339010EC0109239010BC0EB
:1007200080913601821305C080910F01846080930F
:100730000F0110923901FF91EF91BF91AF919F91FD
:100740008F913F912F910F900FBE0F901F90189592
:100750002A9A8EBD0DB407FEFDCF2A9808951F92E8
:100760000F920FB60F9211241092B20010920E0148
:100770000F900FBE0F901F9018951F920F920FB6FB
:100780000F9211242F933F934F935F936F937F9317
:100790008F939F93AF93BF93EF93FF9380910E013D
:1007A0008F5F80930E0180910E01813F10F01092B7
:1007B0000E012091000190910E0181E0291708F0AF
:1007C00080E02091010190910E01291708F48260C8
:1007D0002091020190910E01291708F48460209164
:1007E000030190910E01291708F4886020910401FB
:1007F00090910E01291708F48061209105019091D4
:100800000E01291708F480622091060190910E01D3
:10081000291708F480642091070190910E0129178F
:1008200008F480680E94A803FF91EF91BF91AF91F7
:100830009F918F917F916F915F914F913F912F91F8
:100840000F900FBE0F901F9018958BB188698BB9D0
:1008500088B18F6388B9299A559A84B18C6284B91A
:100860002D9A80E58CBD81E08DBD80E00E94A803BB
:100870000E948B00E8E6F0E0808181608083EBE6F7
:10088000F0E0808181608083E0EBF0E08081826035
:100890008083E1EBF0E0808183608083E0E7F0E03B
:1008A0008081826080838EE08093B3007894C12C35
:1008B000D12C7601C1E0D0E0772473940F2EF3E1C0
:1008C000AF2EF1E0BF2EF02D812C912C212C312C5C
:1008D000412C512C6894662465F805C08BB186259F
:1008E0008BB9C82DD92D4F991BC089B182958F70B6
:1008F0008725082F017010E0C8014B9B8260359B53
:100900008460349B8860339B8061329B8062319B22
:100910008064309B8068199B9160F501918380838E
:1009200080910F0180FF17C080910F018E7F80930F
:100930000F01882D992DFC01E65CFE4F208120954A
:10094000FC01E050FF4F208301968830910599F714
:100950005D9AC82DD92D80910F0184FF18C0EFEF4B
:10096000CE1ADE0AEE0AFE0AF1EACF16F6E8DF0634
:10097000F1E0EF06F10458F080910F018F7E809333
:100980000F010E948200C22CD32CE42CF52C0E9473
:100990008E01C13187E2D80708F0A0CF2196A3CFFE
:1009A000EE0FFF1F0590F491E02D0994FB01DC018F
:1009B00002C005900D9241505040D8F70895FB01B8
:1009C000DC0105900D920020E1F70895FB01DC01A8
:1009D00004C08D910190801921F441505040C8F716
:1009E000881B990B0895FB01DC0102C001900D9258
:1009F00041505040D8F70895DC01CB01FC01F99932
:100A0000FECF06C0F2BDE1BDF89A319600B40D925A
:100A100041505040B8F70895DC01CB0103C02D913F
:100A20000E94170541505040D0F70895262FF9999C
:100A3000FECF1FBA92BD81BD20BD0FB6F894FA9AC1
:0C0A4000F99A0FBE01960895F894FFCFBC
:0E0A4C00FFFFFFFFFFFFFFFF01110205004645
:00000001FF
