:100000000C9434000C9451000C9451000C94030196
:100010000C9451000C9451000C9451000C94AA00C3
:100020000C9451000C9451000C9451000C9451000C
:100030000C9451000C9451000C9451000C945100FC
:100040000C9451000C9451000C9453000C945100EA
:100050000C9451000C9451000C9451000C945100DC
:100060000C9451000C94510011241FBECFEFD8E026
:10007000DEBFCDBF11E0A0E0B1E0E2EDF3E002C0F1
:1000800005900D92A230B107D9F723E0A2E0B1E0CC
:1000900001C01D92A131B207E1F70E9411010C9439
:1000A000E7010C9400001F920F920FB60F921124DB
:1000B0002F938F939F93EF93FF932091C60080918E
:1000C000C00084FF21C08091030190910401029738
:1000D00020F0109201011092000110920401109280
:1000E0000301E0E1F1E02083808181110AC081E019
:1000F0008093020181E090E09093040180930301DA
:1001000018C01092020115C080910201882389F065
:100110008091030190910401FC01E05FFE4F208378
:10012000813022E0920728F4019690930401809395
:100130000301FF91EF919F918F912F910F900FBE2F
:100140000F901F9018952A9A8EBD0DB407FEFDCF13
:100150002A9808951F920F920FB60F9211242F9391
:100160003F934F935F936F937F938F939F93AF933F
:10017000BF93EF93FF93809105018F5F80930501FB
:1001800080910501813F10F01092050120E030E0E0
:1001900080E061E070E0F901E85FFE4F40819091FE
:1001A0000501491740F4AB01022E02C0440F551F50
:1001B0000A94E2F7842B2F5F3F4F2830310559F71F
:1001C0000E94A300809100019091010180349F4121
:1001D00048F48091000190910101019690930101F2
:1001E00080930001FF91EF91BF91AF919F918F910B
:1001F0007F916F915F914F913F912F910F900FBE23
:100200000F901F9018951F920F920FB60F92112406
:100210001092B200109205010F900FBE0F901F9028
:100220001895559A84B18C6284B92D9A80E58CBD5D
:1002300081E08DBD80E00E94A300E8E6F0E08081CF
:1002400081608083EBE6F0E080818160808382E0E2
:1002500090E09093C5008093C400E1ECF0E08081D1
:1002600080698083E2ECF0E080818860808378940C
:10027000529A5A98E0EBF0E0808182608083E1EB53
:10028000F0E0808183608083E0E7F0E0808182603D
:1002900080838EE08093B3008BB188698BB988B17D
:1002A0008F6388B9299A0F2EF2E1CF2EF02D0F2EF1
:1002B000F7E2DF2EF02D71E04FEF01E010E0B9EF33
:1002C000A1E060E050E06894EE24E5F82C2D3D2D8F
:1002D00089B182958F7087278170C82F80E0D82FD1
:1002E000CE014B9B8260359B8460349B8860339B3E
:1002F0008061329B8062319B8064309B8068199B57
:100300009160009711F4802F912F8A3FE1E09E07C2
:1003100010F08B2F9A2FE0910601F0910701E8175A
:10032000F90721F090930701809306014F9B15C0B8
:10033000862F952FE0910601F0910701E80FF91F34
:10034000E05FFE4FF080F094FC01E85FFE4FF0822A
:1003500001968830910571F71AC0862F952FE0918C
:100360000601F0910701E80FF91FE05FFE4FE08101
:10037000E13828F0FC01E85FFE4F108204C0FC0168
:10038000E85FFE4F408301968830910541F78091E8
:1003900000019091010180349F4179F4862F952FBF
:1003A000E0910601F0910701E80FF91FE05FFE4FB1
:1003B000108201968830910599F721503109211555
:1003C000310509F085CF8BB18E258BB97FCFF8949D
:0203D000FFCF5D
:0203D200401FCA
:00000001FF
